:101054007465737420666F722075617274320D0A40
:101064000063616E6E6F74206465746563742065DB
:101074006E6F756768206D61676E6574696320665D
:1010840069656C640D0A00C0F9A4B0999282F88075
:0110940090CB
:0312B000020D919B
:100D910043A210121209D2801211BC1212A2753C88
:100DA10001753D00AF3DAE3C12117D7FE87E03121F
:100DB1001133E4F52AF533C200F5297E107F541270
:100DC1001239C2947F831211A17F831211A17886F7
:100DD100E6752D00F52E7F831211A17886E6752F19
:100DE10000F53054026402700C7E107F65121239D6
:100DF1007529028027E52E752E00F52D452FF52B3F
:100E0100E52E4530F52CAE2B7802CEC313CE13D888
:100E1100F9F52C8E2BFF120FE0752901E5296401EC
:100E21007003120C39AF29EF6004640270051212CD
:100E310078808FAF28AE27AD26AC25120E80E4FF57
:100E4100FE7DA57C43AB28AA27A926A825120A9EC8
:100E510060054003020DC3E4FFFEFD7C41AB28AAFF
:100E610027A926A8251208F8E4FBFA79707844121C
:0F0E71000807120B558E3C8F3D121153020DC313
:0712A20075CEDE43AF02220E
:0712A900E4F59375941E2289
:100C3900AC2BAD2CE4120B1CE4FBFA79807846123C
:100C49000A01E4FBFA79B478431208F88F288E2751
:100C59008D268C25E4FFFE7D207C41AB28AA27A99F
:100C690026A8251208F88F378E368D358C34120B4D
:100C7900558E3E8F3FAC3EAD3FE4120B1CA804A934
:100C890005AA06AB07AF37AE36AD35AC341208034B
:100C99008F438E428D418C40E4FFFEFD7C3FAB4388
:100CA900AA42A941A840120A9E600A4008053FE5E8
:100CB9003F7002053EAC3EAD3FE4120B1CE4FBFA6B
:100CC90079207841120A018F378E368D358C34128E
:100CD9000B558E3E8F3FAC3EAD3FE4120B1CA80472
:100CE900A905AA06AB07AF37AE36AD35AC34120845
:100CF900038F438E428D418C40E4FFFE7D407C3F53
:100D0900AB43AA42A941A840120A9E501FE4FFFE24
:100D19007D807C3EAB43AA42A941A840120A9E604D
:100D29000B4009E4F543F542F541803DE4FFFE7DC2
:100D3900807C3EAB43AA42A941A840120A9E500BAF
:100D4900E4F543F542F541F5408021E4FFFE7D409D
:100D59007C3FAB43AA42A941A840120A9E600D40BC
:100D69000BE4F543F54275418075403FAC3EAD3F1C
:100D7900E4120B1CAB43AA42A941A8401208078FF1
:080D8900288E278D268C2522FF
:1011A100C2DE75CDC08FCF000000E5CD548060FA5E
:0B11B10075CDC0D2DE3000FDC2002270
:1010C8001212A975A0C012112775A0C0C281D282C0
:1010D80012112B75A040C281C282D28312112D75C4
:1010E800A0C0C281C282C283D2847F0F7E00021157
:0110F80033C4
:0F1278001212A975A0BFD281D282D283D2842252
:100E80008F118E108D0F8C0E1212A9AF11AE10ADF6
:100E90000FAC0E120B558E448F45AC44AD45E41299
:100EA0000B1CA804A905AA06AB07AF11AE10AD0F25
:100EB000AC0E1208038F248E238D228C21AE44AFFA
:100EC000457C007D64120BD68E318F32AE44AF4527
:100ED0007C007D64120BD68C448D45748B2532F5D5
:100EE0008274103531F583E493F5A0121127AE44D6
:100EF000AF457C007D0A120BD68E388F39AE44AFD9
:100F0000457C007D0A120BD68C448D45748B2539A7
:100F1000F58274103538F583E493F5A0C281D2824E
:100F200012112B85443A85453B748B253BF5827421
:100F300010353AF583E493547FF5A0C281C282D282
:100F40008312112DE4FFFEFD7C3FAB24AA23A922CE
:100F5000A821120A9E7005901090800490108BE4D6
:0C0F600093F5A0C281C282C283D2842219
:0F128700753C03753DB5AF3DAE3C12117D80FE49
:0F11D7007E00CFCDCFCECCCE120BD6EF2430FF83
:0A11E600C2018F993001FDC2012201
:0F11F0007E00CFCDCFCECCCE120BD6EF2430FF6A
:0A11FF00C2028F9B3002FDC20222E3
:1011BC004387807598505389BFE58954CF4420F5F7
:0B11CC0089758DFAD28ED2ACD2AF2212
:10120900438E08E59A543F4440F59A439A10438E19
:0812190010759CFA43AF01229D
:0300230002109533
:10109500C0E0C0D075D000C000309819C298744621
:1010A5002533F8A6990533C3E533944074809480BD
:1010B5004003753300309904C299D201D000D0D0D5
:0310C500D0E03246
:030043000212683E
:10126800C0E0E59A54026005539AFDD202D0E032FC
:03004B000212514D
:10125100C0D075D000C000D2DED2007886A6CF758E
:07126100CDC0D000D0D03257
:0C112700D281C282C283C2847F0F7E008E
:10113300E4FDFCC3ED9FEC9E5015E4FBFA0BBB00F2
:0F114300010AEB647B4A70F50DBD00010C80E4DE
:01115200227A
:100F6C00AB07AA067F441211E67F611211E67F746B
:100F7C001211E67F611211E67F3D1211E67C277D8E
:100F8C0010AF031211DF7C277D10AF03AE02120BE2
:100F9C00D67E037FE81211D97C037DE8AF03AE0245
:100FAC00120BD67F641211D77C007D64AF03AE02A6
:100FBC00120BD67F0A1211D7AE02AF037C007D0A4A
:100FCC00120BD6ED2430FF1211E67F0D1211E67FC5
:040FDC000A0211E60E
:100FE000AB07AA067F441211FF7F611211FF7F74C5
:100FF0001211FF7F611211FF7F3D1211FF7C277DCF
:1010000010AF031211F87C277D10AF03AE02120B54
:10101000D67E037FE81211F27C037DE8AF03AE02B7
:10102000120BD67F641211F07C007D64AF03AE0218
:10103000120BD67F0A1211F0AE02AF037C007D0ABC
:10104000120BD6ED2430FF1211FF7F0D1211FF7F1E
:041050000A0211FF80
:10122100AD07AC068D828C83E493FF600A1211E650
:081231000DBD00010C80ED224F
:10123900AD07AC068D828C83E493FF600A1211FF1F
:081249000DBD00010C80ED2237
:10115300D3EF9400EE940F40047E0F7F00C3EE9410
:101163000150047E017F00C2DE8E0A8F0BC3E49F11
:0A117300F50974109EF508D2DE2283
:10117D005391F7439208E4F5D843B780D2BF75D9A0
:10118D000875DA4DF5E9F5F9F50CF50D121153D297
:04119D00DED2AF22CD
:03003B000210F9B7
:1010F900C0E0C0D030D822C2D830930AE50B250D04
:10110900F50DE50A8008E509250DF50DE508350C0D
:0E111900F50C850DEAE50CF5FAD0D0D0E032E9
:10080000020BC1E86480F8E933E83360110460F05A
:10081000ED33EC337009E8FCE9FDEAFEEBFF22045E
:1008200060DED3EB9FEA9EE99DE8C2E78CF0C2F759
:1008300095F0400CE8CCF8E9CDF9EACEFAEBCFFB25
:10084000120B8C85D0F05804700320D5B3E80470E7
:10085000075002B2D5020BCB92D5EC0460F7E4CC82
:10086000C0E0C398F8603B94186008400DD0E0FBEE
:10087000020BA3E4FBFAC9FC8028E830E406E4C9D3
:10088000FBE4CAFCE830E305E4C9CACBFCE8540742
:100890006010F8C3E913F9EA13FAEB13FBEC13FC4D
:1008A000D8F130F52FC3E49CFCEF9BFFEE9AFEEDF0
:1008B00099FDD0E0FBEF4E4D4C701222DB03020B92
:1008C000C8EC2CFCEF33FFEE33FEED33FDED30E7EB
:1008D000EB020BA3EF2BFFEE3AFEED39FDD0E0FB70
:1008E00050130BBB0003020BCBED13FDEE13FEEF19
:0808F00013FFEC13FC020BA343
:1008F800EC4D6011E8497017ED33EC3304600DE4FA
:10090800FCFFFEFD22E933E8330470F8020BC11244
:100918000B8C58046009E4CC248150062850090245
:100928000BCB284003020BC8C0E0EB4A7044B980E7
:1009380006D0E0FB020BB7EF4E701CBD8008EBFF42
:10094800EAFEE9FD80EBE98DF0A4FEE5F00209E19D
:10095800E9CDF9EAFEEBFFEF89F0A4FCE5F0CE89DA
:10096800F0A42EFFE435F0CD89F0A42DFEE435F097
:100978008067EF4E7005BD80D780C3EF8BF0A4ACC5
:10098800F0EE8BF0A42CFCE435F0F8EF8AF0A42C00
:10099800E5F038FCE433CB8DF0A42CFCE5F03BF813
:1009A800EE8AF0A42CFCE5F038F8E433CF89F0A403
:1009B8002CFCE5F038CF3400CE89F0A42FFFE5F009
:1009C8003EFEE433C98DF0A42EFEE5F039CD8AF061
:1009D800A42FFFE5F03EFEE43DFD33D0E0FB5007D9
:1009E8000BBB000F020BCBEC2CFCEF33FFEE33FEFE
:0609F800ED33FD020BA32C
:1009FE00020BCBEC5D046005E859047003020BC1D9
:100A0E00120B8C580460F6EC4860F2EC7004FDFE9C
:100A1E00FF22C860DB2481C85009C39860025006CB
:100A2E00020BC89850CAF582E9294B4A7005AB8271
:100A3E00020BB775F0007C1A7880C3EF9BEE9AED2F
:100A4E0099400DC3EF9BFFEE9AFEED99FDE842F043
:100A5E00DC23ACF0D0E0FFD0E0FED0E0FDAB822096
:100A6E00E7101BEB60BAEC2CFCEF33FFEE33FEED20
:100A7E0033FD020BA3E803F830E705C0F075F00074
:100A8E00EF2FFFEE33FEED33FD40B830E7C280AA04
:100A9E0074F8CC6480CCC86480C8F58204604FC3FF
:100AAE00EB9FF5F0EA9E42F0E99D42F0E89C45F09E
:100ABE00603C501DE5825FFFE582D313CB5BCBF428
:100ACE002B5582FB50280ABA002409B90020088051
:100ADE001DE5825BFBE582D313CF5FCFF4C3132FEB
:100AEE005582FF50090EBE00050DBD00010CC3EB73
:100AFE009FF5F0EA9E42F0E99D42F0E89C45F060D9
:090B0E0007CC4820E701B3EC22FA
:100B170075F020800E75F010800575F0087D007E59
:100B2700007F003392D530D503120C2BEC334010E5
:100B3700EF33FFEE33FEED33FDEC33FCD5F0ED2262
:0E0B4700E5F0247EA2D513CC92E7CDCEFF229E
:100B5500EDD2E7CD33EC3392D524814006E4FFFE98
:100B6500FDFC22FCE4CFCECDCC24E0501174FF80F7
:100B7500EDC3CC13CCCD13CDCE13CECF13CF047094
:070B8500F030D5DE020C2B5D
:100B8C00E9D2E7C933E833F892D5EDD2E7CD33ECAF
:070B9C0033FC5002B2D52228
:100BA300EC30E7100FBF000C0EBE00080DBD0004B3
:100BB3000BEB6014A2D5EB13FCED92E7FD2274FF5F
:100BC300FCFDFEFF22E480F8A2D574FF13FC7D80B8
:030BD300E480EFCC
:0300000002129653
:0C129600787FE4F6D8FD7581860212B066
:100BD600BC000BBE0029EF8DF084FFADF022E4CC03
:100BE600F875F008EF2FFFEE33FEEC33FCEE9DECCC
:100BF600984005FCEE9DFE0FD5F0E9E4CEFD22ED12
:100C0600F8F5F0EE8420D21CFEADF075F008EF2F5B
:100C1600FFED33FD4007985006D5F0F222C398FD4C
:050C26000FD5F0EA22E9
:0E0C2B00C3E49FFFE49EFEE49DFDE49CFC22DA
:00000001FF
